:100000000C946B000C9488000C9488000C9488006D
:100010000C9488000C9488000C9488000C94880040
:100020000C9488000C9488000C9488000C94880030
:100030000C9488000C949E050C94F4000C94880099
:100040000C9488000C9488000C947F010C94880018
:100050000C9488000C9488000C9488000C94880000
:100060000C9488000C94880064656275673A2000DF
:1000700030313233343536373839414243444546DE
:1000800000256C75200048454C4C4F20574F524C72
:10009000440D0A007465726D3A200070776D5F73CD
:1000A000657476616C3A2025640D0A006D61696E95
:1000B0003A2000696E7075743D25630D0A007077F3
:1000C0006D20636F6E736F6C652072656164792E4D
:1000D0002E2E0D0A000011241FBECFEFD8E0DEBF88
:1000E000CDBF11E0A0E0B1E0E8E4FAE102C0059084
:1000F0000D92AC30B107D9F721E0ACE0B1E001C01E
:100100001D92A733B207E1F70E94B2060C94220DAC
:100110000C940000CF93DF93CDB7DEB784E490E07A
:1001200024E430E0F90120812260FC01208387E48F
:1001300090E02DE7FC01208385E490E025E430E0A9
:10014000F90120812360FC0120838EE690E022E00B
:10015000FC012083DF91CF910895CF93DF93CDB73A
:10016000DEB78091130190911401A0911501B09117
:100170001601BC01CD01DF91CF910895CF93DF939C
:10018000CDB7DEB728970FB6F894DEBF0FBECDBF50
:100190006D837E838F8398870E94AD009B01AC01A5
:1001A0008D819E81AF81B885820F931FA41FB51FDB
:1001B00089839A83AB83BC830E94AD009B01AC0111
:1001C00089819A81AB81BC8182179307A407B50707
:1001D00008F401C0F1CF28960FB6F894DEBF0FBE29
:1001E000CDBFDF91CF9108951F920F9200905F00D5
:1001F0000F9211248F939F93AF93BF93CF93DF936D
:10020000CDB7DEB78091130190911401A091150133
:10021000B09116010196A11DB11D80931301909319
:100220001401A0931501B0931601DF91CF91BF91F6
:10023000AF919F918F910F9000925F000F901F9050
:100240001895CF93DF93CDB7DEB7809113019091CE
:100250001401A0911501B09116010196A11DB11DC7
:100260008093130190931401A0931501B09316018C
:10027000DF91CF910895CF93DF9300D01F92CDB738
:10028000DEB79B838A8383E3898385EC90E02981B1
:10029000222F30E0232F330F330BFC01208384EC1B
:1002A00090E02981FC01208381EC90E021EC30E09A
:1002B000F90120812068FC01208381EC90E021EC91
:1002C00030E0F90120812861FC01208382EC90E07C
:1002D00022EC30E0F90120812660FC0120838A8134
:1002E0009B810E94BD0160E070E081EE91E00E9480
:1002F000AD080F900F900F90DF91CF9108951F924E
:100300000F9200905F000F9211242F933F934F9311
:100310005F936F937F938F939F93AF93BF93EF936D
:10032000FF93CF93DF931F92CDB7DEB786EC90E0BB
:10033000FC01808189838091190190911A010097B5
:1003400039F02091190130911A018981F90109953B
:100350000F90DF91CF91FF91EF91BF91AF919F915E
:100360008F917F916F915F914F913F912F910F905E
:1003700000925F000F901F901895CF93DF9300D0ED
:10038000CDB7DEB79A83898389819A8190931A01C8
:10039000809319010F900F90DF91CF910895CF9323
:1003A000DF9300D0CDB7DEB79A83898389819A81A4
:1003B00090931801809317010F900F90DF91CF91C8
:1003C0000895CF93DF9300D01F92CDB7DEB7898316
:1003D0007B836A8389810E94330280911701909107
:1003E0001801009739F02091170130911801898187
:1003F000F901099580E090E00F900F900F90DF9148
:10040000CF910895CF93DF9300D01F92CDB7DEB781
:100410009B838A838A819B81FC01808189831AC0A6
:10042000000080EC90E0FC018081882F90E08072D9
:1004300099270097B1F386EC90E02981FC01208395
:100440008A819B8101969B838A838A819B81FC019F
:10045000808189838981882319F70F900F900F90ED
:10046000DF91CF910895CF93DF931F92CDB7DEB781
:100470008983000080EC90E0FC018081882F90E06F
:10048000807299270097B1F386EC90E02981FC01F6
:1004900020830F90DF91CF910895CF93DF93CDB755
:1004A000DEB728970FB6F894DEBF0FBECDBF8887A2
:1004B000888582958F70882F90E080599F4F9A830E
:1004C000898389819A81FC0184918B838B818C83C0
:1004D000000080EC90E0FC018081882F90E0807229
:1004E00099270097B1F386EC90E02C81FC012083E2
:1004F0008885882F90E08F70992780599F4F9E8321
:100500008D838D819E81FC0184918F838F818C836B
:10051000000080EC90E0FC018081882F90E08072E8
:1005200099270097B1F386EC90E02C81FC012083A1
:1005300028960FB6F894DEBF0FBECDBFDF91CF91E6
:100540000895CF93DF9300D000D000D0CDB7DEB7B1
:100550009C838B837E836D831A82198212C089816A
:100560009A812B813C81820F931FFC0180810E9424
:100570004D0280E20E94330289819A8101969A831A
:10058000898329813A818D819E81281739073CF31F
:100590008DE00E9433028AE00E94330226960FB655
:1005A000F894DEBF0FBECDBFDF91CF910895CF93FA
:1005B000DF9300D0CDB7DEB78F819885009729F102
:1005C0008091130190911401A0911501B091160131
:1005D00021E830E04B2F4F934A2F4F93492F4F93F1
:1005E0008F93832F8F93822F8F930E94F8080F9001
:1005F0000F900F900F900F900F9088858F938F81A1
:100600008F930E94F8080F900F90CE010B969A835B
:10061000898349815A8180912F01909130012985E8
:100620003A85B9010E941A090F900F90DF91CF917E
:100630000895CF93DF93CDB7DEB7AA970FB6F8949E
:10064000DEBF0FBECDBF86E890E0292F2F938F939A
:1006500088E690E0892F8F9388E690E08F930E9440
:10066000D7020F900F900F900F9005C086EC90E08E
:1006700023E4FC01208380EC90E0FC018081882F42
:1006800090E080729927009789F380E090E0AAEFCC
:10069000B3E489839A83AB83BC8320E030E04AEFE4
:1006A00054E469817A818B819C810E942208DC015B
:1006B000CB018D839E83AF83B88720E030E040E894
:1006C0005FE36D817E818F8198850E94A1078823D9
:1006D0002CF481E090E09A8789873FC020E03FEFCB
:1006E0004FE757E46D817E818F8198850E941E08B7
:1006F00018164CF520E030E040E251E469817A813F
:100700008B819C810E942208DC01CB01BC01CD01C0
:100710000E94A507DC01CB019A8789870FC088EC6E
:1007200090E09C878B878B859C850197F1F79C8750
:100730008B8789859A8501979A87898789859A8584
:10074000009769F714C06D817E818F8198850E9422
:10075000A507DC01CB019A87898789859A859E87C1
:100760008D878D859E850197F1F79E878D8786EC15
:1007700090E020E5FC01208380E090E0AAEFB3E464
:100780008F87988BA98BBA8B20E030E04AEF54E436
:100790006F85788989899A890E942208DC01CB01BA
:1007A0008B8B9C8BAD8BBE8B20E030E040E85FE311
:1007B0006B897C898D899E890E94A10788232CF4EE
:1007C00081E090E0988F8F8B3FC020E03FEF4FE7B4
:1007D00057E46B897C898D899E890E941E081816B2
:1007E0004CF520E030E040E251E46F85788989895A
:1007F0009A890E942208DC01CB01BC01CD010E9434
:10080000A507DC01CB01988F8F8B0FC088EC90E09F
:100810009A8F898F898D9A8D0197F1F79A8F898F99
:100820008F89988D0197988F8F8B8F89988D0097DE
:1008300069F714C06B897C898D899E890E94A50700
:10084000DC01CB01988F8F8B8F89988D9C8F8B8F3C
:100850008B8D9C8D0197F1F79C8F8B8F86EC90E0B0
:1008600028E4FC01208380E090E0AAEFB3E48D8FC0
:100870009E8FAF8FB8A320E030E04AEF54E46D8D37
:100880007E8D8F8D98A10E942208DC01CB0189A367
:100890009AA3ABA3BCA320E030E040E85FE369A1EA
:1008A0007AA18BA19CA10E94A10788232CF481E04E
:1008B00090E09EA38DA33FC020E03FEF4FE757E4B9
:1008C00069A17AA18BA19CA10E941E0818164CF563
:1008D00020E030E040E251E46D8D7E8D8F8D98A157
:1008E0000E942208DC01CB01BC01CD010E94A507BA
:1008F000DC01CB019EA38DA30FC088EC90E098A7EC
:100900008FA38FA198A50197F1F798A78FA38DA129
:100910009EA101979EA38DA38DA19EA1009769F72B
:1009200014C069A17AA18BA19CA10E94A507DC013A
:10093000CB019EA38DA38DA19EA19AA789A789A56E
:100940009AA50197F1F79AA789A7AA960FB6F894E6
:10095000DEBF0FBECDBFDF91CF910895CF93DF9360
:1009600000D000D0CDB7DEB78C838C8180538B83D1
:100970001A82198210C099818CE1989F202D112430
:1009800089819A81855E9E4FFC01208389819A81AD
:1009900001969A83898389819A818A3091055CF3D3
:1009A0008B81882F90E0855E9E4FFC01808160E006
:1009B0000E948F058B81882F90E0855E9E4FFC0101
:1009C0008081282F30E08BE990E0432F4F932F93C5
:1009D000292F2F938F9384E990E0892F8F9384E9B7
:1009E00090E08F930E94D7020F900F900F900F907E
:1009F0000F900F900F900F900F900F90DF91CF916D
:100A00000895CF93DF93CDB7DEB782E380930C01D7
:100A10008AE290E02AE230E0F90120812860FC01BE
:100A200020838AE290E02AE230E0F901208120620E
:100A3000FC0120838AE290E02AE230E0F901208183
:100A40002064FC01208384E290E024E230E0F9019C
:100A500020812260FC01208384E290E024E230E0E7
:100A6000F90120812460FC01208384E290E024E2EB
:100A700030E0F90120812860FC01208384E490E0CB
:100A800021EAFC01208385E490E021E0FC01208341
:100A900080E890E021EAFC01208381E890E021E0F9
:100AA000FC01208380EB90E021EAFC01208381EBB4
:100AB00090E021E0FC0120838FE690E021E0FC0142
:100AC0002083789487E490E020910C01FC0120833E
:100AD00088E490E020910C01FC01208388E890E0FC
:100AE00020910C01222F30E0FC01318320838AE821
:100AF00090E020910C01222F30E0FC013183208313
:100B000083EB90E020910C01FC01208384EB90E0CA
:100B100020910C01FC012083DF91CF910895CF93A8
:100B2000DF9300D0CDB7DEB789836A838981809354
:100B30000C010F900F90DF91CF9108951F920F92AB
:100B400000905F000F9211242F933F934F935F9378
:100B50006F937F938F939F93AF93BF93EF93FF9385
:100B6000CF93DF93CDB7DEB780910D018F5F809378
:100B70000D0180910D01803261F587E490E02091B4
:100B80000C01FC01208388E490E020910C01FC0121
:100B9000208388E890E020910C01222F30E0FC01B6
:100BA000318320838AE890E020910C01222F30E0ED
:100BB000FC013183208383EB90E020910C01FC0148
:100BC000208384EB90E020910C01FC0120831092A3
:100BD0000D010E94FF05DF91CF91FF91EF91BF9131
:100BE000AF919F918F917F916F915F914F913F91C5
:100BF0002F910F9000925F000F901F901895CF9348
:100C0000DF93CDB7DEB780910D01882F90E08F7113
:100C10009927009711F40E942101DF91CF91089547
:100C2000CF93DF93CDB7DEB70000DF91CF9108956A
:100C3000CF93DF931F92CDB7DEB78AE290E028E032
:100C4000FC01208384E290E02EE0FC0120831982E5
:100C500015C08981882F90E020910601875D9E4F05
:100C6000FC0120838981882F90E0209106018B5D13
:100C70009E4FFC01208389818F5F89838981843025
:100C800040F385E390E021E0FC0120838EE690E0D4
:100C900021E0FC01208385E490E021E0FC01208339
:100CA0000F90DF91CF910895CF93DF93CDB7DEB74B
:100CB000DF91CF910895CF93DF9300D0CDB7DEB70A
:100CC00089836A830F900F90DF91CF910895CF931E
:100CD000DF93CDB7DEB784E290E024E230E0F901A3
:100CE00020812062FC012083DF91CF910895CF9372
:100CF000DF93CDB7DEB785E290E025E230E0F90181
:100D0000308120E22327FC012083DF91CF910895D9
:100D1000CF93DF931F92CDB7DEB78983898180930C
:100D200012018981282F30E083EB90E0432F4F930D
:100D30002F93292F2F938F938CEA90E0892F8F93F5
:100D40008CEA90E08F930E94D7020F900F900F9043
:100D50000F900F900F9089810E94AE040F90DF9149
:100D6000CF910895CF93DF93CDB7DEB72E970FB60F
:100D7000F894DEBF0FBECDBF0E94670688E896E0FC
:100D80000E943B010E94010578948EEB90E0292F90
:100D90002F938F938CEA90E0892F8F938CEA90E0C9
:100DA0008F930E94D7020F900F900F900F900E9488
:100DB00010060E947D07882341F00E94770668EEA6
:100DC00073E080E090E00E94580780E090E0A8E4A3
:100DD000B2E489839A83AB83BC8320E030E04AEF9E
:100DE00054E469817A818B819C810E942208DC0114
:100DF000CB018D839E83AF83B88720E030E040E84D
:100E00005FE36D817E818F8198850E94A107882391
:100E10002CF481E090E09A8789873FC020E03FEF83
:100E20004FE757E46D817E818F8198850E941E086F
:100E300018164CF520E030E040E251E469817A81F7
:100E40008B819C810E942208DC01CB01BC01CD0179
:100E50000E94A507DC01CB019A8789870FC088EC27
:100E600090E09C878B878B859C850197F1F79C8709
:100E70008B8789859A8501979A87898789859A853D
:100E8000009769F794CF6D817E818F8198850E944C
:100E9000A507DC01CB019A87898789859A859E877A
:100EA0008D878D859E850197F1F79E878D877FCFF2
:100EB000CF93DF9300D000D0CDB7DEB769837A83BC
:100EC0008B839C830E94AD009B01AC0189819A8138
:100ED000AB81BC81820F931FA41FB51F80930E01AD
:100EE00090930F01A0931001B09311010F900F90F8
:100EF0000F900F90DF91CF910895CF93DF931F92C2
:100F0000CDB7DEB719820E94AD009B01AC01809184
:100F10000E0190910F01A0911001B09111012817BD
:100F200039074A075B0740F068EE73E080E090E025
:100F30000E94580781E0898389810F90DF91CF91CA
:100F400008952FD008F481E0089557D088F09F5776
:100F500090F0B92F9927B751A0F0D1F0660F771F05
:100F6000881F991F1AF0BA95C9F712C0B13081F0E5
:100F70005ED0B1E008955BC0672F782F8827B85FF7
:100F800039F0B93FCCF3869577956795B395D9F746
:100F90003EF490958095709561957F4F8F4F9F4F50
:100FA0000895990F0008550FAA0BE0E8FEEF1616FA
:100FB0001706E807F907C0F012161306E407F5074D
:100FC00098F0621B730B840B950B39F40A2661F0C1
:100FD000232B242B252B21F408950A2609F4A14064
:100FE000A6958FEF811D811D089557FD9058440FE0
:100FF000551F59F05F3F71F04795880F97FB991F78
:1010000061F09F3F79F08795089512161306140634
:10101000551FF2CF4695F1DF08C0161617061806C1
:10102000991FF1CF86957105610508940895E8949C
:10103000BB2766277727CB0197F90895B2DF08F41D
:101040008FEF08950BD078C069D028F06ED018F0DB
:10105000952309F05AC05FC01124EACFC6DFA0F380
:10106000959FD1F3950F50E0551F629FF001729F3D
:10107000BB27F00DB11D639FAA27F00DB11DAA1F5C
:10108000649F6627B00DA11D661F829F2227B00DA9
:10109000A11D621F739FB00DA11D621F839FA00D34
:1010A000611D221F749F3327A00D611D231F849F84
:1010B000600D211D822F762F6A2F11249F575040DB
:1010C0008AF0E1F088234AF0EE0FFF1FBB1F661F76
:1010D000771F881F91505040A9F79E3F510570F02F
:1010E00014C0A6CF5F3FECF3983EDCF3869577956E
:1010F0006795B795F795E7959F5FC1F7FE2B880F2A
:10110000911D9695879597F9089597F99F6780E8BF
:1011100070E060E008959FEF80EC089500240A9449
:101120001616170618060906089500240A941216C2
:101130001306140605060895092E0394000C11F4F5
:10114000882352F0BB0F40F4BF2B11F460FF04C0A2
:101150006F5F7F4F8F4F9F4F08950F931F93CF93D4
:10116000DF93EC018B01009731F46115710519F4DF
:1011700080E090E038C06EE070E081E090E00E9496
:10118000FB0AFC010097A1F380E883830115110598
:1011900071F01387028781E8838380912D019091FC
:1011A0002E01892B21F4F0932E01E0932D0120973D
:1011B000C9F0D187C08783818260838380912F01AA
:1011C00090913001892B71F4F0933001E0932F015D
:1011D0008091310190913201892B21F4F0933201F9
:1011E000E0933101CF01DF91CF911F910F910895CD
:1011F000A0E0B0E0EEEFF8E00C94F90CFE013796B9
:10120000619171910FE211E0D8018D919C91DC0107
:1012100013962C911397286013962C93AF010E947C
:101220002909D801ED91FC912381277F2383E4E0F4
:101230000C94150DCF93DF93EC018B8188608B8329
:10124000CE010E9429092B81277F2B83DF91CF912B
:101250000895ACE0B0E0EFE2F9E00C94EB0C7C0117
:101260006B018A01FC0117821682838181FFBDC157
:10127000CE0101964C01F7019381F60193FD859112
:1012800093FF81916F01882309F4ABC1853239F452
:1012900093FD859193FF81916F01853229F4B70108
:1012A00090E00E945B0CE7CF512C312C20E02032E3
:1012B000A0F48B3269F030F4803259F0833269F453
:1012C00020612CC08D3239F0803339F4216026C082
:1012D0002260246023C0286021C027FD27C030ED94
:1012E000380F3A3078F426FF06C0FAE05F9E300DE2
:1012F0001124532E13C08AE0389E300D1124332E52
:1013000020620CC08E3221F426FD6BC1206406C021
:101310008C3611F4206802C0883641F4F60193FD42
:10132000859193FF81916F018111C1CF982F9F7D8E
:101330009554933028F40C5F1F4FFFE3F9830DC0E1
:10134000833631F0833771F0833509F05BC022C0FA
:10135000F801808189830E5F1F4F44244394512CF0
:10136000540115C03801F2E06F0E711CF801A08025
:10137000B18026FF03C0652D70E002C06FEF7FEFE4
:10138000C5012C870E94500C2C0183012C852F77DE
:10139000222E17C03801F2E06F0E711CF801A080F8
:1013A000B18026FF03C0652D70E002C06FEF7FEFB4
:1013B000C5012C870E943E0C2C012C852068222E12
:1013C000830123FC1BC0832D90E048165906B0F41E
:1013D000B70180E290E00E945B0C3A94F4CFF501F3
:1013E00027FC859127FE81915F01B70190E00E9463
:1013F0005B0C31103A94F1E04F1A5108411451043A
:1014000071F7E5C0843611F0893639F5F80127FF08
:1014100007C060817181828193810C5F1F4F08C07A
:1014200060817181882777FD8095982F0E5F1F4F0F
:101430002F76B22E97FF09C0909580957095619593
:101440007F4F8F4F9F4F2068B22E2AE030E0A401DB
:101450000E948D0CA82EA81844C0853729F42F7E31
:10146000B22E2AE030E025C0F22FF97FBF2E8F3652
:10147000C1F018F4883579F0B4C0803719F0883796
:1014800021F0AFC02F2F2061B22EB4FE0DC08B2DE6
:101490008460B82E09C024FF0AC09F2F9660B92E21
:1014A00006C028E030E005C020E130E002C020E1C5
:1014B00032E0F801B7FE07C06081718182819381BB
:1014C0000C5F1F4F06C06081718180E090E00E5F6D
:1014D0001F4FA4010E948D0CA82EA818FB2DFF778A
:1014E000BF2EB6FE0BC02B2D2E7FA51450F4B4FEDC
:1014F0000AC0B2FC08C02B2D2E7E05C07A2C2B2DE5
:1015000003C07A2C01C0752C24FF0DC0FE01EA0D2A
:10151000F11D8081803311F4297E09C022FF06C0AD
:101520007394739404C0822F867809F0739423FD1A
:1015300013C020FF06C05A2C731418F4530C57180C
:10154000732C731468F4B70180E290E02C870E943A
:101550005B0C73942C85F5CF731410F4371801C00D
:10156000312C24FF12C0B70180E390E02C870E9449
:101570005B0C2C8522FF17C021FF03C088E590E09B
:1015800002C088E790E0B7010CC0822F867859F03E
:1015900021FD02C080E201C08BE227FD8DE2B70190
:1015A00090E00E945B0CA51438F4B70180E390E052
:1015B0000E945B0C5A94F7CFAA94F401EA0DF11D36
:1015C0008081B70190E00E945B0CA110F5CF332021
:1015D00009F451CEB70180E290E00E945B0C3A948E
:1015E000F6CFF7018681978102C08FEF9FEF2C968F
:1015F000E2E10C94070D0F931F93CF93DF93869F27
:101600008001879F100D969F100D1124C8010E9424
:10161000170BEC01009729F0A80160E070E00E9430
:10162000490CCE01DF91CF911F910F910895CF9377
:10163000DF938230910510F482E090E0E091350173
:10164000F091360120E030E0A0E0B0E0309739F1D1
:101650004081518148175907B8F04817590771F46C
:1016600082819381109729F013969C938E93129701
:101670002CC0909336018093350127C02115310588
:1016800031F04217530718F0A901DB0101C0EF0147
:101690009A01BD01DF010280F381E02DD7CF211532
:1016A0003105F9F0281B390B2430310580F48A818B
:1016B0009B816115710521F0FB019383828304C036
:1016C0009093360180933501FE01329644C0FE01AD
:1016D000E20FF31F819391932250310939832883BC
:1016E0003AC02091330130913401232B41F42091F1
:1016F0000201309103013093340120933301209192
:101700000001309101012115310541F42DB73EB79B
:101710004091040150910501241B350BE0913301E8
:10172000F0913401E217F307A0F42E1B3F0B2817AA
:10173000390778F0AC014E5F5F4F2417350748F04A
:101740004E0F5F1F50933401409333018193919367
:1017500002C0E0E0F0E0CF01DF91CF910895CF9398
:10176000DF93009709F487C0FC013297138212823D
:10177000C0913501D0913601209781F420813181CB
:10178000280F391F809133019091340182179307FC
:1017900079F5F0933401E09333016DC0DE0120E070
:1017A00030E0AE17BF0750F412964D915C9113973D
:1017B0009D014115510509F1DA01F3CFB383A283ED
:1017C00040815181840F951F8A179B0771F48D9179
:1017D0009C911197840F951F029691838083129696
:1017E0008D919C911397938382832115310529F460
:1017F000F0933601E09335013EC0D9011396FC9376
:10180000EE9312974D915D91A40FB51FEA17FB0758
:1018100079F480819181840F951F0296D9011196E8
:101820009C938E938281938113969C938E931297AF
:10183000E0E0F0E08A819B81009719F0FE01EC0165
:10184000F9CFCE01029628813981820F931F209112
:101850003301309134012817390769F4309729F49E
:10186000109236011092350102C013821282D09379
:101870003401C0933301DF91CF910895FC010590AD
:10188000615070400110D8F7809590958E0F9F1F82
:101890000895DC0101C06D9341505040E0F7089578
:1018A000FC016150704001900110D8F7809590952F
:1018B0008E0F9F1F08950F931F93CF93DF93182FC1
:1018C000092FEB018B8181FD03C08FEF9FEF20C0BB
:1018D00082FF10C04E815F812C813D8142175307EA
:1018E0007CF4E881F9819F012F5F3F4F3983288382
:1018F000108306C0E885F985812F0995892B29F782
:101900002E813F812F5F3F4F3F832E83812F902F6A
:10191000DF91CF911F910F910895FA01AA272830E6
:1019200051F1203181F1E8946F936E7F6E5F7F4FAC
:101930008F4F9F4FAF4FB1E03ED0B4E03CD0670F28
:10194000781F891F9A1FA11D680F791F8A1F911D7B
:10195000A11D6A0F711D811D911DA11D20D009F4CB
:1019600068943F912AE0269F11243019305D31930D
:10197000DEF6CF010895462F4770405D4193B3E0F6
:101980000FD0C9F7F6CF462F4F70405D4A3318F09D
:10199000495D31FD4052419302D0A9F7EACFB4E04E
:1019A000A6959795879577956795BA95C9F7009706
:1019B0006105710508959B01AC010A2E06945795A7
:1019C000479537952795BA95C9F7620F731F841FFE
:1019D000951FA01D08952F923F924F925F926F9294
:1019E0007F928F929F92AF92BF92CF92DF92EF92AF
:1019F000FF920F931F93CF93DF93CDB7DEB7CA1B30
:101A0000DB0B0FB6F894DEBF0FBECDBF09942A885A
:101A1000398848885F846E847D848C849B84AA8402
:101A2000B984C884DF80EE80FD800C811B81AA818F
:101A3000B981CE0FD11D0FB6F894DEBF0FBECDBF5A
:081A4000ED010895F894FFCFB9
:0C1A48000000370120002020202020009A
:00000001FF
