:100000000C9497000C94B4000C94B4000C94B400BD
:100010000C94B4000C94B4000C94B4000C94B40090
:100020000C94B4000C94B4000C94B4000C94B40080
:100030000C94B4000C9410090C9420010C94B4009E
:100040000C945C0A0C94B4000C94AB010C94B400B6
:100050000C94B4000C94B4000C94B4000C94B40050
:100060000C94B4000C94B40064656275673A200087
:1000700030313233343536373839414243444546DE
:1000800000256C75200025730048454C4C4F2057C7
:100090004F524C440D0A007465726D3A200070771F
:1000A0006D5F73657476616C3A2025640D0A006695
:1000B0006173745F70776D3A20007261775F696E6B
:1000C0007075743D25640D0A0070776D5F736574FB
:1000D00076616C3A2025640D0A0070776D3A200035
:1000E000736F66745F70776D3A20006D61696E3A68
:1000F00020007370696B655F333238705F70776DA5
:1001000020737461727465642E2E2E0D0A00726164
:10011000775F696E7075743D25640D0A0070776DA8
:100120005F73657476616C3A2025640D0A001124B2
:100130001FBECFEFD8E0DEBFCDBF11E0A0E0B1E041
:10014000E4E4F6E202C005900D92AE31B107D9F7B2
:1001500021E0AEE1B1E001C01D92A435B207E1F7A4
:100160000E941F0B0C9420130C940000CF93DF937C
:10017000CDB7DEB784E490E024E430E0F9012081DB
:100180002260FC01208387E490E02DE7FC012083BE
:1001900085E490E025E430E0F90120812360FC0152
:1001A00020838EE690E022E0FC012083DF91CF9156
:1001B0000895CF93DF93CDB7DEB780913001909152
:1001C0003101A0913201B0913301BC01CD01DF9129
:1001D000CF910895CF93DF93CDB7DEB728970FB6B1
:1001E000F894DEBF0FBECDBF6D837E838F8398876B
:1001F0000E94D9009B01AC018D819E81AF81B885A1
:10020000820F931FA41FB51F89839A83AB83BC837E
:100210000E94D9009B01AC0189819A81AB81BC818C
:1002200082179307A407B50708F401C0F1CF2896F9
:100230000FB6F894DEBF0FBECDBFDF91CF9108950A
:100240001F920F9200905F000F9211248F939F9343
:10025000AF93BF93CF93DF93CDB7DEB780913001DB
:1002600090913101A0913201B09133010196A11D0D
:10027000B11D8093300190933101A0933201B0936E
:100280003301DF91CF91BF91AF919F918F910F90EB
:1002900000925F000F901F901895CF93DF93CDB71A
:1002A000DEB78091300190913101A0913201B0917F
:1002B00033010196A11DB11D80933001909331014E
:1002C000A0933201B0933301DF91CF910895CF9382
:1002D000DF9300D01F92CDB7DEB79B838A8383E381
:1002E000898385EC90E02981222F30E0232F330F82
:1002F000330BFC01208384EC90E02981FC012083F6
:1003000081EC90E021EC30E0F90120812068FC01D3
:10031000208381EC90E021EC30E0F901208128611C
:10032000FC01208382EC90E022EC30E0F901208196
:100330002660FC0120838A819B810E94E90160E0A4
:1003400070E08DE092E00E94A20E0F900F900F904F
:10035000DF91CF9108951F920F9200905F000F924E
:1003600011242F933F934F935F936F937F938F93BA
:100370009F93AF93BF93EF93FF93CF93DF931F921E
:10038000CDB7DEB786EC90E0FC0180818983809157
:10039000360190913701009739F020913601309164
:1003A00037018981F90109950F90DF91CF91FF9174
:1003B000EF91BF91AF919F918F917F916F915F91DD
:1003C0004F913F912F910F9000925F000F901F90DF
:1003D0001895CF93DF9300D0CDB7DEB79A8389838A
:1003E00089819A8190933701809336010F900F9005
:1003F000DF91CF910895CF93DF9300D0CDB7DEB7D3
:100400009A83898389819A819093350180933401FD
:100410000F900F90DF91CF910895CF93DF9300D08D
:100420001F92CDB7DEB789837B836A8389810E945F
:100430005F028091340190913501009739F020914D
:100440003401309135018981F901099580E090E00E
:100450000F900F900F90DF91CF910895CF93DF937E
:1004600000D01F92CDB7DEB79B838A838A819B81A0
:10047000FC01808189831AC0000080EC90E0FC01BF
:100480008081882F90E0807299270097B1F386ECE5
:1004900090E02981FC0120838A819B8101969B83C6
:1004A0008A838A819B81FC01808189838981882359
:1004B00019F70F900F900F90DF91CF910895CF9380
:1004C000DF931F92CDB7DEB78983000080EC90E008
:1004D000FC018081882F90E0807299270097B1F30A
:1004E00086EC90E02981FC0120830F90DF91CF9171
:1004F0000895CF93DF93CDB7DEB728970FB6F89462
:10050000DEBF0FBECDBF8887888582958F70882F0C
:1005100090E080599F4F9A83898389819A81FC0159
:1005200084918B838B818C83000080EC90E0FC01B4
:100530008081882F90E0807299270097B1F386EC34
:1005400090E02C81FC0120838885882F90E08F70BB
:10055000992780599F4F9E838D838D819E81FC01B9
:1005600084918F838F818C83000080EC90E0FC016C
:100570008081882F90E0807299270097B1F386ECF4
:1005800090E02C81FC01208328960FB6F894DEBF02
:100590000FBECDBFDF91CF910895CF93DF9300D0F1
:1005A00000D000D0CDB7DEB79C838B837E836D8374
:1005B0001A82198212C089819A812B813C81820F13
:1005C000931FFC0180810E94790280E20E945F02F9
:1005D00089819A8101969A83898329813A818D81C3
:1005E0009E81281739073CF38DE00E945F028AE064
:1005F0000E945F0226960FB6F894DEBF0FBECDBFF5
:10060000DF91CF910895CF93DF9300D0CDB7DEB7C0
:100610008F819885009729F1809130019091310167
:10062000A0913201B091330121E830E04B2F4F937C
:100630004A2F4F93492F4F938F93832F8F93822F5E
:100640008F930E94ED0E0F900F900F900F900F90D0
:100650000F9088858F938F818F930E94ED0E0F905E
:100660000F90CE010B969A83898349815A8180919C
:100670004C0190914D0129853A85B9010E940F0FD7
:100680000F900F90DF91CF910895CF93DF93CDB767
:10069000DEB760970FB6F894DEBF0FBECDBF9C8764
:1006A0008B874D875E876F87788B8AE090E098878D
:1006B0008F838D859E85AF85B889BC01CD010E9451
:1006C000C9039A87898789859A85AA2797FDA09566
:1006D000BA2FBC01CD010E94390DDC01CB019C0178
:1006E000AD016D857E858F8598890E949D0CDC010A
:1006F000CB018B839C83AD83BE831A8219821FC07A
:100700008F819885AA2797FDA095BA2FBC01CD01AE
:100710000E94390DDC01CB019C01AD016B817C8114
:100720008D819E810E94ED0DDC01CB018B839C832A
:10073000AD83BE8389819A8101969A838983898159
:100740009A8184309105E4F28F819885AA2797FDDC
:10075000A095BA2FBC01CD010E94390DDC01CB015F
:100760002B813C814D815E81BC01CD010E94ED0D4C
:10077000DC01CB01BC01CD010E94060DDC01CB01E7
:1007800060960FB6F894DEBF0FBECDBFDF91CF915C
:100790000895CF93DF9300D000D0CDB7DEB7698343
:1007A0007A838B839C8369817A818B819C810E946F
:1007B000060DDC01CB010F900F900F900F90DF9191
:1007C000CF910895CF93DF93CDB7DEB7A8970FB63B
:1007D000F894DEBF0FBECDBF6DA37EA38FA398A7F5
:1007E0001CA21BA2CE01059644E150E060E070E03F
:1007F0000E94500ECE0149964AE050E060E070E061
:100800000E94500E8DA19EA1AFA1B8A5BC01CD0143
:100810000E94C9039A8389839E01275E3F4F898185
:100820009A814AE050E0B9010E94720E9E01275E53
:100830003F4FCE010596B9010E94570ECE01499651
:100840000E94690E9C018DA19EA1AFA1B8A5AC012B
:10085000BD01C9010E9445039C838B839E01275ED5
:100860003F4F8B819C814AE050E0B9010E94720E9B
:10087000CE0105969C01F90101900020E9F7CF0116
:100880000197821B930B9E012B5F3F4F820F931F9B
:100890002EE230E0FC01318320839E01275E3F4F32
:1008A000CE010596B9010E94570E86E890E09E01A0
:1008B0002B5F3F4F432F4F932F93292F2F938F93CE
:1008C00088E690E0892F8F9388E690E08F930E94CE
:1008D00003030F900F900F900F900F900F909E01B9
:1008E0002D5D3F4FCE010596B9010E94620EA8967C
:1008F0000FB6F894DEBF0FBECDBFDF91CF91089544
:10090000CF93DF93CDB7DEB7AA970FB6F894DEBFCB
:100910000FBECDBF89E890E0292F2F938F9388E6F3
:1009200090E0892F8F9388E690E08F930E940303D5
:100930000F900F900F900F9005C086EC90E023E48D
:10094000FC01208380EC90E0FC018081882F90E006
:1009500080729927009789F380E090E0AAEFB3E4D2
:1009600089839A83AB83BC8320E030E04AEF54E470
:1009700069817A818B819C810E94ED0DDC01CB0124
:100980008D839E83AF83B88720E030E040E85FE34B
:100990006D817E818F8198850E94020D88232CF4C1
:1009A00081E090E09A8789873FC020E03FEF4FE7E2
:1009B00057E46D817E818F8198850E94E90D18161C
:1009C0004CF520E030E040E251E469817A818B818E
:1009D0009C810E94ED0DDC01CB01BC01CD010E9488
:1009E0000B0DDC01CB019A8789870FC088EC90E062
:1009F0009C878B878B859C850197F1F79C878B87DC
:100A000089859A8501979A87898789859A8500972C
:100A100069F714C06D817E818F8198850E940B0DCE
:100A2000DC01CB019A87898789859A859E878D8786
:100A30008D859E850197F1F79E878D8786EC90E0E6
:100A400020E5FC01208380E090E0AAEFB3E48F87EB
:100A5000988BA98BBA8B20E030E04AEF54E46F8585
:100A6000788989899A890E94ED0DDC01CB018B8BF5
:100A70009C8BAD8BBE8B20E030E040E85FE36B8960
:100A80007C898D899E890E94020D88232CF481E047
:100A900090E0988F8F8B3FC020E03FEF4FE757E407
:100AA0006B897C898D899E890E94E90D18164CF509
:100AB00020E030E040E251E46F85788989899A89A5
:100AC0000E94ED0DDC01CB01BC01CD010E940B0D9C
:100AD000DC01CB01988F8F8B0FC088EC90E09A8F50
:100AE000898F898D9A8D0197F1F79A8F898F8F89D8
:100AF000988D0197988F8F8B8F89988D009769F7C4
:100B000014C06B897C898D899E890E940B0DDC0144
:100B1000CB01988F8F8B8F89988D9C8F8B8F8B8D2E
:100B20009C8D0197F1F79C8F8B8F86EC90E028E4E9
:100B3000FC01208380E090E0AAEFB3E48D8F9E8FCC
:100B4000AF8FB8A320E030E04AEF54E46D8D7E8D86
:100B50008F8D98A10E94ED0DDC01CB0189A39AA392
:100B6000ABA3BCA320E030E040E85FE369A17AA139
:100B70008BA19CA10E94020D88232CF481E090E0BF
:100B80009EA38DA33FC020E03FEF4FE757E469A14C
:100B90007AA18BA19CA10E94E90D18164CF520E0CA
:100BA00030E040E251E46D8D7E8D8F8D98A10E94E2
:100BB000ED0DDC01CB01BC01CD010E940B0DDC0170
:100BC000CB019EA38DA30FC088EC90E098A78FA3C4
:100BD0008FA198A50197F1F798A78FA38DA19EA14A
:100BE00001979EA38DA38DA19EA1009769F714C0C4
:100BF00069A17AA18BA19CA10E940B0DDC01CB0104
:100C00009EA38DA38DA19EA19AA789A789A59AA528
:100C10000197F1F79AA789A7AA960FB6F894DEBFB5
:100C20000FBECDBFDF91CF910895CF93DF9300D05A
:100C3000CDB7DEB78A838A81805389838981882FE3
:100C400090E0880F991F8A5F9E4FFC0180819181FF
:100C500060E00E94DB088981882F90E0880F991F4F
:100C60008A5F9E4FFC018081918161E00E94DB08D8
:100C70008981882F90E0880F991F8A5F9E4FFC0121
:100C80008081918162E00E94DB088981882F90E059
:100C9000880F991F8A5F9E4FFC018081918163E0DC
:100CA0000E94DB088981882F90E0880F991F8A5F56
:100CB0009E4FFC018081918164E00E94DB08898164
:100CC000882F90E0880F991F8A5F9E4FFC018081DA
:100CD000918165E00E94DB088981882F90E0885C23
:100CE0009E4FFC018081282F30E08EE990E0432F59
:100CF0004F932F93292F2F938F9387E990E0892F7C
:100D00008F9387E990E08F930E9403030F900F90D9
:100D10000F900F900F900F900F900F90DF91CF9149
:100D20000895CF93DF93CDB7DEB781E197E00E94BE
:100D3000670184E290E024E230E0F9012081226042
:100D4000FC01208380E890E020E830E0F901208178
:100D50002260FC01208381E890E021E830E0F90185
:100D600020812861FC01208380E890E020E830E0C9
:100D7000F9012081206CFC01208381E890E021E8CA
:100D800030E0F90120812260FC01208386E890E0B8
:100D90002FE13EE4FC013183208388E890E02FE4DA
:100DA00036E4FC0131832083DF91CF910895CF9306
:100DB000DF93CDB7DEB780911E01882331F080919B
:100DC0001E010E941E0710921E010E941208882315
:100DD00031F080912301882311F00E94CC07DF912C
:100DE000CF910895CF93DF9300D01F92CDB7DEB798
:100DF0009A8389836B8388E890E026E830E0F901E4
:100E00004081518129813A81BA01621B730B9B0198
:100E1000FC01318320830F900F900F90DF91CF91D1
:100E20000895CF93DF931F92CDB7DEB78983898171
:100E300080931E010F90DF91CF910895CF93DF93A0
:100E400000D0CDB7DEB78A838A81282F30E08AEBC5
:100E500090E0432F4F932F93292F2F938F938FEA57
:100E600090E0892F8F938FEA90E08F930E94030385
:100E70000F900F900F900F900F900F908A81882FF6
:100E800090E08337910521F481E0809323017FC0B6
:100E9000109223018A818033E0F08A818A33C8F47A
:100EA0008A81805389838981282F30E04CE9429FD1
:100EB000C001439F900D1124805E9C4F90931101BF
:100EC00080931001809110019091110160E00E94C7
:100ED000F2068A818B32F9F4809110019091110110
:100EE00007969093110180931001809110019091C9
:100EF0001101893928E0920730F088E998E0909351
:100F0000110180931001809110019091110160E016
:100F10000E94F20621C08A818D32F1F48091100185
:100F20009091110107979093110180931001809186
:100F3000100190911101803223E0920730F480E299
:100F400093E0909311018093100180911001909192
:100F5000110160E00E94F206209110013091110110
:100F600089EC90E0432F4F932F93292F2F938F934A
:100F70008FEA90E0892F8F938FEA90E08F930E9401
:100F800003030F900F900F900F900F900F900F9002
:100F90000F90DF91CF910895CF93DF93CDB7DEB758
:100FA00080912401882349F460E080E293E00E946C
:100FB000F20681E08093240107C060E088E998E0B0
:100FC0000E94F2061092240164EF71E080E090E04C
:100FD0000E94ED07DF91CF910895CF93DF9300D06A
:100FE00000D0CDB7DEB769837A838B839C830E9460
:100FF000D9009B01AC0189819A81AB81BC81820FB0
:10100000931FA41FB51F80931F0190932001A093ED
:101010002101B09322010F900F900F900F90DF915C
:10102000CF910895CF93DF931F92CDB7DEB719828A
:101030000E94D9009B01AC0180911F019091200179
:10104000A0912101B0912201281739074A075B07B7
:1010500040F068EE73E080E090E00E94ED0781E0F0
:10106000898389810F90DF91CF910895CF93DF938A
:101070001F92CDB7DEB789838981809325010F90B8
:10108000DF91CF910895CF93DF93CDB7DEB78AE29A
:1010900090E02AE230E0F90120812860FC01208301
:1010A0008AE290E02AE230E0F90120812062FC012E
:1010B00020838AE290E02AE230E0F9012081206476
:1010C000FC01208384E290E024E230E0F9012081F9
:1010D0002260FC01208384E290E024E230E0F90108
:1010E00020812460FC01208384E290E024E230E04F
:1010F000F90120812860FC01208384E490E021EA4A
:10110000FC01208385E490E021E0FC01208380E85D
:1011100090E021EAFC01208381E890E021E0FC01DD
:10112000208380EB90E021EAFC01208381EB90E0BA
:1011300021E0FC0120838FE690E02FE630E0F9010A
:1011400020812160FC0120838EE690E02EE630E0D5
:10115000F90120812170FC012083789487E490E0DC
:1011600020911201FC01208388E490E0209113017A
:10117000FC01208388E890E020911701222F30E0C5
:10118000FC01318320838AE890E020911601222F10
:1011900030E0FC013183208383EB90E02091150146
:1011A000FC01208384EB90E020911401FC0120835A
:1011B000DF91CF910895CF93DF9300D0CDB7DEB705
:1011C00089836A838A81882321F48981809312012B
:1011D00022C08A81813021F48981809313011BC050
:1011E0008A81823021F489818093140114C08A811C
:1011F000833021F48981809315010DC08A81843068
:1012000021F489818093160106C08A81853019F402
:101210008981809317010F900F90DF91CF910895EE
:101220001F920F9200905F000F9211242F933F9313
:101230004F935F936F937F938F939F93AF93BF93DE
:10124000EF93FF93CF93DF93CDB7DEB78091260165
:101250009091270101969093270180932601809118
:10126000260190912701803822E0920771F51092B3
:1012700027011092260187E490E020911201FC01E1
:10128000208388E490E020911301FC01208388E80A
:1012900090E020911701222F30E0FC013183208360
:1012A0008AE890E020911601222F30E0FC01318382
:1012B000208383EB90E020911501FC01208384EBD7
:1012C00090E020911401FC0120830E947B09DF91B2
:1012D000CF91FF91EF91BF91AF919F918F917F91AE
:1012E0006F915F914F913F912F910F9000925F000E
:1012F0000F901F901895CF93DF93CDB7DEB78091F5
:101300002601909127018F719927009711F40E946F
:101310004D01DF91CF910895CF93DF93CDB7DEB725
:1013200080912501882331F0809125010E949D093B
:1013300010922501DF91CF910895CF93DF931F92F3
:10134000CDB7DEB789830F90DF91CF910895CF930A
:10135000DF931F92CDB7DEB78983898180932801FF
:101360000F90DF91CF910895CF93DF9300D0CDB749
:10137000DEB78AE290E028E0FC01208384E290E07E
:101380002EE0FC0120831A82198215C020911801D9
:1013900089819A818A5B9E4FFC01208320911801EC
:1013A00089819A818E5B9E4FFC01208389819A817D
:1013B00001969A83898389819A818430910534F3D7
:1013C00085E390E021E0FC0120838EE690E021E0BF
:1013D000FC01208385E490E025E430E0F9012081E0
:1013E0002160FC0120830F900F90DF91CF91089531
:1013F000CF93DF93CDB7DEB780912801882331F0FA
:10140000809128010E942A0A10922801DF91CF9131
:101410000895CF93DF93CDB7DEB780912A0188235B
:1014200051F460E070E080E090E00E94F20681E01C
:1014300080932A0108C060E070E08FEF90E00E9486
:10144000F20610922A0184EF91E00E94540CDF9181
:10145000CF910895CF93DF9300D01F92CDB7DEB721
:101460008B838B81805389838981882F90E00196BB
:10147000982F8CE1989F802D11248A8360E08A81C7
:101480000E94480A0F900F900F90DF91CF9108951E
:10149000CF93DF9300D0CDB7DEB789836A838A818B
:1014A000882F90E08E5B9E4F2981FC0120830F9056
:1014B0000F90DF91CF9108951F920F9200905F00DF
:1014C0000F9211242F938F939F93EF93FF93CF93BA
:1014D000DF9300D0CDB7DEB71A82198215C02091F4
:1014E000180189819A818A5B9E4FFC01208320919B
:1014F000180189819A818E5B9E4FFC01208389812E
:101500009A8101969A83898389819A818430910591
:1015100034F385E290E020911901FC0120838BE2F5
:1015200090E020911A01FC01208380911B018F5FC4
:1015300080931B0180911B018F3FC1F48091420178
:10154000809346018091430180934701809144013B
:101550008093480180914501809349018EE08093FA
:10156000190188E080931A0110921B0190914601A5
:1015700080911B01981729F4809119018D7F809328
:1015800019019091470180911B01981729F48091CE
:1015900019018B7F809319019091480180911B0163
:1015A000981729F480911901877F809319019091F0
:1015B000490180911B01981729F480911A01877FB6
:1015C00080931A010F900F90DF91CF91FF91EF91CF
:1015D0009F918F912F910F9000925F000F901F901D
:1015E0001895CF93DF93CDB7DEB784E290E024E285
:1015F00030E0F90120812062FC012083DF91CF914E
:101600000895CF93DF93CDB7DEB785E290E025E272
:1016100030E0F901308120E22327FC012083DF91B3
:10162000CF910895CF93DF931F92CDB7DEB7898313
:10163000898180932F010F90DF91CF910895CF93EF
:10164000DF93CDB7DEB72F970FB6F894DEBF0FBE8E
:10165000CDBF0E94F10A82E19BE00E9467010E94D7
:10166000430882EF90E0292F2F938F938BEE90E029
:10167000892F8F938BEE90E08F930E9403030F903E
:101680000F900F900F90789481E0898380912F01C3
:10169000882331F080912F010E94D10B10922F01ED
:1016A0000E948C090E94790C882341F00E94010B52
:1016B00062E370E080E090E00E94540C80E090E0F3
:1016C000A0E8BFE38A839B83AC83BD8320E030E046
:1016D0004AEF54E46A817B818C819D810E94ED0DEB
:1016E000DC01CB018E839F83A887B98720E030E09F
:1016F00040E85FE36E817F81888599850E94020DB5
:1017000088232CF481E090E09B878A873FC020E00B
:101710003FEF4FE757E46E817F81888599850E946E
:10172000E90D18164CF520E030E040E251E46A8102
:101730007B818C819D810E94ED0DDC01CB01BC0180
:10174000CD010E940B0DDC01CB019B878A870FC066
:1017500088EC90E09D878C878C859D850197F1F7BB
:101760009D878C878A859B8501979B878A878A8539
:101770009B85009769F78ACF6E817F8188859985DF
:101780000E940B0DDC01CB019B878A878A859B8594
:101790009F878E878E859F850197F1F79F878E871C
:1017A00075CFCF93DF931F92CDB7DEB78983898141
:1017B000282F30E08EE091E0432F4F932F93292F75
:1017C0002F938F938BEE90E0892F8F938BEE90E089
:1017D0008F930E9403030F900F900F900F900F9024
:1017E0000F908981813319F08981813371F480915F
:1017F0001C018F5F80931C0180911C018F3F21F49D
:101800008FEF80931C0113C012C08981803319F0BF
:101810008981803361F480911C01815080931C0187
:1018200080911C01893B18F489EB80931C01809105
:101830001C0160E00E94DB0880911C0161E00E94B5
:10184000DB0880911C0162E00E94DB0880911C0192
:1018500063E00E94DB0880911C0164E00E94DB08C9
:1018600080911C0165E00E94DB0880911C01282FFB
:1018700030E08DE191E0432F4F932F93292F2F9349
:101880008F938BEE90E0892F8F938BEE90E08F9368
:101890000E9403030F900F900F900F900F900F90E6
:1018A0000F90DF91CF910895CF93DF9300D000D0B8
:1018B000CDB7DEB769837A838B839C830E94D9007E
:1018C0009B01AC0189819A81AB81BC81820F931FFE
:1018D000A41FB51F80932B0190932C01A0932D0181
:1018E000B0932E010F900F900F900F90DF91CF913A
:1018F0000895CF93DF931F92CDB7DEB719820E9470
:10190000D9009B01AC0180912B0190912C01A091F9
:101910002D01B0912E01281739074A075B0740F0C7
:1019200068EE73E080E090E00E94540C81E08983CF
:1019300089810F90DF91CF9108955058BB27AA2736
:101940000ED00DC1FED030F003D120F031F49F3F16
:1019500011F41EF4F3C00EF4E095E7FBE9C0E92FA3
:101960000FD180F3BA17620773078407950718F041
:1019700071F49EF527C10EF4E0950B2EBA2FA02D21
:101980000B01B90190010C01CA01A0011124FF272C
:10199000591B99F0593F50F4503E68F11A16F04027
:1019A000A22F232F342F4427585FF3CF4695379526
:1019B0002795A795F0405395C9F77EF41F16BA0BEB
:1019C000620B730B840BBAF09150A1F0FF0FBB1F99
:1019D000661F771F881FC2F70EC0BA0F621F731FE2
:1019E000841F48F4879577956795B795F7959E3F3F
:1019F00008F0B3CF9395880F08F09927EE0F9795CD
:101A00008795089571D008F481E0089504D0689412
:101A1000B111D9C00895BCD088F09F5790F0B92F6C
:101A20009927B751A0F0D1F0660F771F881F991F33
:101A30001AF0BA95C9F712C0B13081F0C3D0B1E045
:101A40000895C0C0672F782F8827B85F39F0B93F55
:101A5000CCF3869577956795B395D9F73EF4909535
:101A60008095709561957F4F8F4F9F4F0895E894B3
:101A700009C097FB3EF490958095709561957F4FD6
:101A80008F4F9F4F9923A9F0F92F96E9BB27939584
:101A9000F695879577956795B795F111F8CFFAF494
:101AA000BB0F11F460FF1BC06F5F7F4F8F4F9F4FC5
:101AB00016C0882311F096E911C0772321F09EE823
:101AC000872F762F05C0662371F096E8862F70E089
:101AD00060E02AF09A95660F771F881FDAF7880F63
:101AE0009695879597F90895990F0008550FAA0BB9
:101AF000E0E8FEEF16161706E807F907C0F0121621
:101B00001306E407F50798F0621B730B840B950B23
:101B100039F40A2661F0232B242B252B21F4089578
:101B20000A2609F4A140A6958FEF811D811D089515
:101B300097F99F6780E870E060E008959FEF80EC80
:101B4000089500240A941616170618060906089523
:101B500000240A9412161306140605060895092E89
:101B60000394000C11F4882352F0BB0F40F4BF2BF8
:101B700011F460FF04C06F5F7F4F8F4F9F4F089538
:101B800057FD9058440F551F59F05F3F71F047952E
:101B9000880F97FB991F61F09F3F79F08795089513
:101BA000121613061406551FF2CF4695F1DF08C032
:101BB000161617061806991FF1CF8695710561054F
:101BC00008940895E894BB2766277727CB0197F9F7
:101BD00008958ADF08F48FEF08950BD0C0CFB1DFEE
:101BE00028F0B6DF18F0952309F0A2CFA7CF112473
:101BF000EACFC6DFA0F3959FD1F3950F50E0551FB4
:101C0000629FF001729FBB27F00DB11D639FAA2751
:101C1000F00DB11DAA1F649F6627B00DA11D661FA0
:101C2000829F2227B00DA11D621F739FB00DA11DC1
:101C3000621F839FA00D611D221F749F3327A00D7B
:101C4000611D231F849F600D211D822F762F6A2F17
:101C500011249F5750408AF0E1F088234AF0EE0F9C
:101C6000FF1FBB1F661F771F881F91505040A9F7A9
:101C70009E3F510570F05CCFA6CF5F3FECF3983EDE
:101C8000DCF3869577956795B795F795E7959F5F10
:101C9000C1F7FE2B880F911D9695879597F90895AA
:101CA000DC0101C06D9341505040E0F70895FB0105
:101CB000DC010D900020E9F7119701900D920020B2
:101CC000E1F70895FB01DC0101900D920020E1F79E
:101CD0000895FC0101900020E9F7809590958E0F02
:101CE0009F1F08954532510520F4423010F00C94A6
:101CF0007D0EFB011082CB010895BB274A3031F4E1
:101D0000992322F4BDE2909581959F4F0C94890E02
:101D1000BB27FB015527AA27880F991FAA1FA417C5
:101D200010F0A41B83955051B9F7A05DAA3308F0B9
:101D3000A95DA193009779F7B111B1931192CB01ED
:101D40000C9449120F931F93CF93DF93EC018B01F7
:101D5000009731F46115710519F480E090E038C006
:101D60006EE070E081E090E00E94F010FC010097CE
:101D7000A1F380E883830115110571F013870287B1
:101D800081E8838380914A0190914B01892B21F452
:101D9000F0934B01E0934A012097C9F0D187C087A7
:101DA00083818260838380914C0190914D01892BC6
:101DB00071F4F0934D01E0934C0180914E019091AC
:101DC0004F01892B21F4F0934F01E0934E01CF0195
:101DD000DF91CF911F910F910895A0E0B0E0E3EF64
:101DE000FEE00C94F712FE013796619171910CE4BC
:101DF00011E0D8018D919C91DC0113962C911397E1
:101E0000286013962C93AF010E941E0FD801ED910C
:101E1000FC912381277F2383E4E00C941313CF9359
:101E2000DF93EC018B8188608B83CE010E941E0FB3
:101E30002B81277F2B83DF91CF910895ACE0B0E019
:101E4000E4E2FFE00C94E9127C016B018A01FC01E1
:101E500017821682838181FFBDC1CE0101964C019C
:101E6000F7019381F60193FD859193FF81916F01B5
:101E7000882309F4ABC1853239F493FD859193FF32
:101E800081916F01853229F4B70190E00E945912C7
:101E9000E7CF512C312C20E02032A0F48B3269F0B6
:101EA00030F4803259F0833269F420612CC08D32D5
:101EB00039F0803339F4216026C02260246023C0C9
:101EC000286021C027FD27C030ED380F3A3078F464
:101ED00026FF06C0FAE05F9E300D1124532E13C07A
:101EE0008AE0389E300D1124332E20620CC08E32D1
:101EF00021F426FD6BC1206406C08C3611F42068E5
:101F000002C0883641F4F60193FD859193FF8191DB
:101F10006F018111C1CF982F9F7D9554933028F484
:101F20000C5F1F4FFFE3F9830DC0833631F0833719
:101F300071F0833509F05BC022C0F801808189838C
:101F40000E5F1F4F44244394512C540115C0380197
:101F5000F2E06F0E711CF801A080B18026FF03C073
:101F6000652D70E002C06FEF7FEFC5012C870E94E6
:101F70003E122C0183012C852F77222E17C03801A9
:101F8000F2E06F0E711CF801A080B18026FF03C043
:101F9000652D70E002C06FEF7FEFC5012C870E94B6
:101FA00033122C012C852068222E830123FC1BC0B8
:101FB000832D90E048165906B0F4B70180E290E016
:101FC0000E9459123A94F4CFF50127FC859127FE1F
:101FD00081915F01B70190E00E94591231103A944B
:101FE000F1E04F1A51084114510471F7E5C08436ED
:101FF00011F0893639F5F80127FF07C0608171813A
:10200000828193810C5F1F4F08C060817181882796
:1020100077FD8095982F0E5F1F4F2F76B22E97FF7A
:1020200009C090958095709561957F4F8F4F9F4F18
:102030002068B22E2AE030E0A4010E948B12A82E64
:10204000A81844C0853729F42F7EB22E2AE030E04C
:1020500025C0F22FF97FBF2E8F36C1F018F48835D6
:1020600079F0B4C0803719F0883721F0AFC02F2F36
:102070002061B22EB4FE0DC08B2D8460B82E09C035
:1020800024FF0AC09F2F9660B92E06C028E030E0DA
:1020900005C020E130E002C020E132E0F801B7FEE7
:1020A00007C060817181828193810C5F1F4F06C0E0
:1020B0006081718180E090E00E5F1F4FA4010E945B
:1020C0008B12A82EA818FB2DFF77BF2EB6FE0BC0D3
:1020D0002B2D2E7FA51450F4B4FE0AC0B2FC08C00C
:1020E0002B2D2E7E05C07A2C2B2D03C07A2C01C0FF
:1020F000752C24FF0DC0FE01EA0DF11D8081803397
:1021000011F4297E09C022FF06C07394739404C0A1
:10211000822F867809F0739423FD13C020FF06C038
:102120005A2C731418F4530C5718732C731468F446
:10213000B70180E290E02C870E94591273942C859D
:10214000F5CF731410F4371801C0312C24FF12C0DE
:10215000B70180E390E02C870E9459122C8522FF62
:1021600017C021FF03C088E590E002C088E790E037
:10217000B7010CC0822F867859F021FD02C080E2A1
:1021800001C08BE227FD8DE2B70190E00E94591259
:10219000A51438F4B70180E390E00E9459125A94D4
:1021A000F7CFAA94F401EA0DF11D8081B70190E008
:1021B0000E945912A110F5CF332009F451CEB70176
:1021C00080E290E00E9459123A94F6CFF70186819E
:1021D000978102C08FEF9FEF2C96E2E10C940513DC
:1021E0000F931F93CF93DF93869F8001879F100DDE
:1021F000969F100D1124C8010E940C11EC0100974C
:1022000029F0A80160E070E00E94500ECE01DF913D
:10221000CF911F910F910895CF93DF938230910555
:1022200010F482E090E0E0915201F091530120E03F
:1022300030E0A0E0B0E0309739F14081518148179B
:102240005907B8F04817590771F4828193811097A4
:1022500029F013969C938E9312972CC09093530160
:102260008093520127C02115310531F042175307E1
:1022700018F0A901DB0101C0EF019A01BD01DF01E6
:102280000280F381E02DD7CF21153105F9F0281B0D
:10229000390B2430310580F48A819B8161157105E9
:1022A00021F0FB019383828304C0909353018093B8
:1022B0005201FE01329644C0FE01E20FF31F8193EA
:1022C000919322503109398328833AC020915001DB
:1022D00030915101232B41F42091020130910301EF
:1022E0003093510120935001209100013091010160
:1022F0002115310541F42DB73EB7409104015091AD
:102300000501241B350BE0915001F0915101E217BA
:10231000F307A0F42E1B3F0B2817390778F0AC0108
:102320004E5F5F4F2417350748F04E0F5F1F5093E5
:102330005101409350018193919302C0E0E0F0E09D
:10234000CF01DF91CF910895CF93DF93009709F4E8
:1023500087C0FC01329713821282C0915201D09142
:102360005301209781F420813181280F391F8091FA
:102370005001909151018217930779F5F093510123
:10238000E09350016DC0DE0120E030E0AE17BF07E2
:1023900050F412964D915C9113979D014115510592
:1023A00009F1DA01F3CFB383A28340815181840F15
:1023B000951F8A179B0771F48D919C911197840F3B
:1023C000951F02969183808312968D919C9113970D
:1023D000938382832115310529F4F0935301E0930F
:1023E00052013EC0D9011396FC93EE9312974D9182
:1023F0005D91A40FB51FEA17FB0779F480819181E5
:10240000840F951F0296D90111969C938E93828119
:10241000938113969C938E931297E0E0F0E08A816B
:102420009B81009719F0FE01EC01F9CFCE010296D5
:1024300028813981820F931F2091500130915101E1
:102440002817390769F4309729F410925301109234
:10245000520102C013821282D0935101C0935001E5
:10246000DF91CF910895FC010590615070400110FB
:10247000D8F7809590958E0F9F1F0895FC016150AD
:10248000704001900110D8F7809590958E0F9F1F96
:102490000895DC01FC01672F71917723E1F73297F2
:1024A00004C07C916D9370836291AE17BF07C8F32F
:1024B00008950F931F93CF93DF93182F092FEB01EC
:1024C0008B8181FD03C08FEF9FEF20C082FF10C082
:1024D0004E815F812C813D81421753077CF4E88156
:1024E000F9819F012F5F3F4F39832883108306C0F6
:1024F000E885F985812F0995892B29F72E813F8160
:102500002F5F3F4F3F832E83812F902FDF91CF91FD
:102510001F910F910895FA01AA27283051F1203117
:1025200081F1E8946F936E7F6E5F7F4F8F4F9F4F67
:10253000AF4FB1E03ED0B4E03CD0670F781F891FA9
:102540009A1FA11D680F791F8A1F911DA11D6A0F77
:10255000711D811D911DA11D20D009F468943F912A
:102560002AE0269F11243019305D3193DEF6CF0129
:102570000895462F4770405D4193B3E00FD0C9F7EF
:10258000F6CF462F4F70405D4A3318F0495D31FD5C
:102590004052419302D0A9F7EACFB4E0A6959795AF
:1025A000879577956795BA95C9F700976105710585
:1025B00008959B01AC010A2E0694579547953795CF
:1025C0002795BA95C9F7620F731F841F951FA01D29
:1025D00008952F923F924F925F926F927F928F92C7
:1025E0009F92AF92BF92CF92DF92EF92FF920F93A2
:1025F0001F93CF93DF93CDB7DEB7CA1BDB0B0FB6AC
:10260000F894DEBF0FBECDBF09942A883988488868
:102610005F846E847D848C849B84AA84B984C884FE
:10262000DF80EE80FD800C811B81AA81B981CE0FF5
:10263000D11D0FB6F894DEBF0FBECDBFED010895DA
:04264000F894FFCF3C
:10264400000054012000800081008200000000008E
:0E2654002003202020202020200E08FFB900A7
:00000001FF
